:020000040800F2
:10000000C0A40220B9010008DB010008A901000812
:10001000DF010008E1010008E30100080000000022
:10002000000000000000000000000000E5010008E2
:10003000E701000800000000E90100085531000850
:10004000ED010008ED010008ED010008ED010008D8
:10005000ED010008ED010008811E0008451F0008A1
:10006000691F00088D1F0008B11F0008ED0100087E
:10007000ED010008551C0008ED010008ED01000825
:10008000ED010008ED01000875190008ED010008F8
:10009000ED010008ED010008ED010008D51F000882
:1000A000ED010008CD330008ED010008ED01000866
:1000B000193400084534000875340008ED010008C3
:1000C000ED010008ED010008ED010008ED01000858
:1000D000ED010008253D0008313D00083D3D0008C8
:1000E000A51E0008ED010008ED010008ED01000863
:1000F00035350008ED010008ED010008ED010008AC
:100100000000000000000000A5340008ED01000818
:10011000ED010008ED010008D534000805350008A0
:10012000ED010008ED010008ED010008ED010008F7
:10013000ED010008ED010008ED010008ED010008E7
:1001400000000000000000000000000000000000AF
:10015000ED010008ED010008ED010008ED010008C7
:10016000ED010008ED010008ED010008ED010008B7
:10017000ED010008ED01000800000000DFF814D0D8
:1001800000F090FD00F030F900480047AD30020863
:1001900000F02DFCC0A40220EFF308807047EFF3BD
:1001A00009807047684670477046694613F080F9C9
:1001B00024F048FBFEE7000041F20000C2F200001C
:1001C00085460B48804740F20000C0F60000D0F89A
:1001D00000D00848804708480047FEE7FEE7FEE7F2
:1001E000FEE7FEE7FEE7FEE7FEE7FEE7FEE70000CC
:1001F0008D700108153200087D0100082DE9F05FBF
:100200000546002092469B46884606468146402485
:100210001BE0284641464746224600F07EFB5346F7
:100220005A46C01A914110D311461846224600F092
:1002300065FB2D1A67EB01084F462246012000217D
:1002400000F05CFB17EB00094E41201EA4F10104F5
:10025000DFDC484631462A464346BDE8F09F0000B1
:1002600000487047DC48030810B50446FFF7F8FF64
:100270000068005D00F0010010BD40EA01039B072B
:1002800003D009E008C9121F08C0042AFAD203E00B
:1002900011F8013B00F8013B521EF9D2704710B52E
:1002A000431A934209D28318881803E010F8011DFD
:1002B00003F8011D521EF9D210BD40EA01039B074D
:1002C00003D009E008C9121F08C0042AFAD203E0CB
:1002D00011F8013B00F8013B521EF9D210BDD2B219
:1002E00001E000F8012B491EFBD270470022F6E71F
:1002F00010B513460A4604461946FFF7F0FF20469C
:1003000010BD421E12F8013F002BFBD111F8013B3A
:1003100002F8013B002BF9D1704730B505462A465B
:100320000B4612F8010B13F8014B08B1A042F8D0AC
:100330001CB1002802D06D1CF1E7284630BD10B575
:10034000044604E00B7800F8013B03B1491C521E3F
:10035000F8D2204610BD421C10F8011B0029FBD129
:10036000801A704710B5002200E0521C835C8C5C40
:10037000A34201D1002BF8D1D8B2E1B2401A10BD8E
:1003800030B504460020034600E05B1C934203D2D4
:10039000E05CCD5C401BF8D030BD034611F8012B6A
:1003A00000F8012B002AF9D1184670470246C9B25D
:1003B00000E0401C0378002BFBD102E003788B4265
:1003C00003D0401E9042F9D20020704770B5064617
:1003D0000DF0C0FC046805460A220021304600F0FA
:1003E000BEFA2C6070BD000070B5054C054D03E0F1
:1003F000206820448047241DAC42F9D170BD000024
:100400002C5A03086C5A03082DE9F041074615469B
:100410000E4610200EF0FCFE04000AD06760C4E90E
:10042000026500F0D5FA0168216004600020BDE893
:10043000F0810120FBE72DE9FE4F804681EA0300B1
:10044000C00F0C46009021F0004123F00045B8EBAE
:100450000200A94105D24046214690461C460B4663
:10046000024623F00040104347D0270DC7F30A008F
:10047000C3F30A510290401A019040286BDAC3F38B
:10048000130040F4801B0098924620B10023D2EB69
:10049000030A63EB0B0B01985946C0F1400250462A
:1004A00000F02CFA06460D4650465946019A00F0D7
:1004B00044FA10EB08006141002487EA115284EAF3
:1004C000E7731A4340D0009A62B3019A012A4FEAB7
:1004D000075215DC001B61EB02014FF0004202EAFB
:1004E0000752CDE90042001C41F5801132462B46EF
:1004F00000F0E4FA03B0BDE8F08F40462146F9E78A
:10050000001B61EB0201001C41F5801300185B41E8
:100510002018A2F5001747EB030140EAD570B61981
:100520006D4111E06D084FEA360645EAC0754FEAA5
:100530000752001B61EB0201001C41F580114908C4
:100540004FEA30000019514132462B4603B0BDE856
:10055000F04F00F0A4BA0098012240000023D0EB35
:10056000020263EBE073009821464FEAE074B8EBB7
:10057000000061EB0401E9E783F000435BE781F0F1
:10058000004158E72DE9FE4F81EA030404F00044DE
:1005900021F0004100944FF0000B23F0004350EA9B
:1005A00001045ED052EA03045BD0C3F30A54C1F3E2
:1005B0000A552C44A4F2F3340194A0FB0254C1F375
:1005C000130141F48011C3F3130343F4801301FBBF
:1005D000024400FB034E840A970A44EA815447EA26
:1005E0008357A4FB076802958D0A05FB07854FEA30
:1005F000932C04FB0C542705029D4FEA065847EA4A
:100600001637B5EB08056EEB070C870E920E47EA1E
:10061000811742EA8312A7FB0201B6EB0B0164EBE0
:1006200000042B0D43EA0C335E1844EB1C50DA46F1
:100630005146E7FB0201C5F313044FEA0B3343EACB
:1006400014534FEA0432019C43EA0603A4F10C045C
:100650000294009CCDE900B400F030FA03B0BDE88C
:10066000F08F00200146F9E72DE9F04D81EA0304FF
:1006700004F0004B21F0004514464FF0000A23F02F
:10068000004150EA050220D054EA01021DD0C5F312
:100690000A570246C5F31303C1F31300C1F30A5608
:1006A00040F4801543F48013A7EB0608101BD646D0
:1006B00008F2FD3873EB050002D308F1010801E0F0
:1006C00092185B41B8F1000F03DA00200146BDE843
:1006D000F08D00204FF48011064684460EE0171B73
:1006E00073EB050705D3121B63EB050306434CEAC6
:1006F000010C49084FEA300092185B4150EA0107AB
:10070000EDD152EA030012D082EA040083EA050127
:10071000084305D0101BAB4106D20122002306E09E
:1007200000224FF0004302E06FF0010253101AEB79
:1007300006004CEB085110EB0A0041EB0B01BDE841
:10074000F04D00F0ACB930B40446962308002146C1
:1007500004D0B62330BC002200F073B9204600213B
:10076000F8E70EB5C10F80EAE0700844CA0700211F
:1007700040F233438DE80E000A460B4600F09EF926
:1007800003B000BD0EB540F2334102910021CDE926
:1007900000110A460B4600F091F903B000BD70B598
:1007A000C1F30A5201F000450024C1F3130140F2E5
:1007B000FF3341F480119A4201DA002070BD40F20B
:1007C00033439A42A2F2334203DC524200F0A5F8CE
:1007D00000E090402C43F1D0404270BDC1F30A527A
:1007E00010B5C1F3130140F2FF3341F480119A4276
:1007F00001DA002010BD40F233439A42A2F23342A4
:1008000003DC524200F089F810BD904010BD00F0AA
:10081000004230F000400AD0C10D01F56071C0F314
:10082000160042EA0151C2084007114370470020F8
:100830000146704730B5041E71F1000404DB4FF02F
:100840000044404264EB0101141E73F1000405DB17
:100850001C464FF00043524263EB04038B4208BF37
:10086000824230BD30B5041E71F1000404DB4FF04C
:100870000044404264EB0101141E73F1000405DBE7
:100880001C464FF00043524263EB0403994208BFF9
:10089000904230BD01F0004330B421F0004150EAF5
:1008A000010206D00A0DA2F56072C1F31301002AFD
:1008B00002DC30BC00207047440F44EAC104C10090
:1008C000E01830BC00EBC25000F0B2B800F0B4B990
:1008D00030B50B46014600202022012409E021FA10
:1008E00002F59D4205D303FA02F5491B04FA02F50D
:1008F0002844151EA2F10102F1DC30BD202A04DBE0
:10090000203A00FA02F1002070479140C2F1200322
:1009100020FA03F3194390407047202A04DB203A61
:1009200021FA02F00021704721FA02F3D040C2F10F
:1009300020029140084319467047202A06DBCB1756
:10094000203A41FA02F043EAE07306E041FA02F38A
:10095000D040C2F1200291400843194670472DE96A
:10096000F04791460F4680460446002614F8015B86
:100970002DB1FFF775FC0068405DC007F6D12B2D47
:1009800002D02D2D18D0641E4A463946204600F06C
:1009900087FB27B13968A14201D1C7F800807105F2
:1009A0004FF002040BD54042002803DD0DF0D2F9D0
:1009B0000460A007BDE8F08746F48066E4E70028FD
:1009C000F8DA0DF0C7F904606FF00040F2E70000BC
:1009D0000048704724020020034870470248001D69
:1009E000011F8860001D70472802002070472DE914
:1009F000F0410646FFF7ECFF8046454613E016B18E
:100A0000E068B0420ED120682860D4E90101D8F82E
:100A10000070884720460DF0CBF9D8F80000B842A6
:100A2000EBD100E025462C68002CE8D1BDE8F08130
:100A30000029A8BF7047401C490008BF20F00100F2
:100A4000704710B4B0FA80FC00FA0CF050EA0104D0
:100A500004BF10BC704749B1CCF1200421FA04F462
:100A600011FA0CF118BF012121430843A3EB0C013B
:100A7000CB1D4FEA00614FEA102042BF002010BC9E
:100A8000704700EBC35010440029A4BF10BC70474E
:100A9000401C490008BF20F0010010BC704710B591
:100AA000141E73F1000408DA401C41F10001921891
:100AB0005B411A4301D120F0010010BD2DE9F04D3A
:100AC00092469B4611B1B1FA81F202E0B0FA80F28F
:100AD00020329046FFF712FF04460F4640EA0A0014
:100AE00041EA0B0153465A46084313D0114653EAD4
:100AF000010019D0C8F140025046FFF70EFF05462D
:100B00000E46504659464246FFF7F8FE084305D0C8
:100B1000012004E020463946BDE8F08D0020054361
:100B200046EAE0762C4337430A986305E40AA0EBD3
:100B300008000022FD0A44EA47540A3002D500208A
:100B40000146E9E7010510196941DDE90845001989
:100B50006941BDE8F04DA2E72DE9F04D00231A46AA
:100B60001B1A8A4103DB00200146BDE8F08DC1F36A
:100B70000A52C1F3130141F480154FF0000BD10765
:100B800002D100186D41521E0027044640F2FF11A9
:100B9000384601EB620A3E468046024600204FF48A
:100BA0008011FFF7BAFEC2197141BB1846EB010074
:100BB000B4EB030C75EB000C04D3E41A65EB0005F1
:100BC00017460E46241908F101006D41804634286D
:100BD000E3DDF91946EB0600091BA84103D24FF0EB
:100BE000FF32134601E0002213461BEB070046EBE1
:100BF0000A51BDE8F04DFFF752BFC1F30A52C1F3ED
:100C0000130140F2FF3341F480119A4202DA0020CE
:100C10000146704740F233439A42A2F2334202DC6B
:100C20005242FFF77ABEFFF769BE10B50DF096F895
:100C3000BDE810400CF07CBF10B500F00EF8016963
:100C400019B100220261884701E080688047AFF354
:100C50000080000010B5AFF3008070B5FFF7BEFE56
:100C600004680546A4B920200EF0D2FA040011D081
:100C7000094900202C60C4E900010849A1602073E3
:100C8000206160610649A06109B100F059FAE06194
:100C9000204670BDAFF3008000000000550C000836
:100CA00000000000064C074D06E0E06840F001033C
:100CB00094E8070098471034AC42F6D3FFF762FA85
:100CC0000C5A03082C5A03080FB400B58DB010A9B4
:100CD00009900B9000914FF0FF300A9000200C908B
:100CE00005480690054807906A4609A80F9900F044
:100CF0003BFC0DB05DF814FB611000087F1000088C
:100D00002DE9FF4F087883B09946FF2805D0491C8C
:100D10002D2804D00024002008E000200BE001244E
:100D2000F9E700EB800003EB4000491C0B78FF2B38
:100D3000F7D104B1404200230293147819461D46AE
:100D40002D2C01D02B2C04D1521C2D2C13D000247F
:100D50000294AA461478FF2C0FD00A25A3FB05782D
:100D600001FB05814FF0000C03FB0C11521CE31931
:100D70004AEB0101EEE70124EAE7814453EA01006E
:100D800002D019F5C87F06DA03980021C0E90011E6
:100D900007B0BDE8F08F0025AE4E2F46DFF8B882D1
:100DA000184600F0EFFBCDE90001B9F1000002DACE
:100DB000C9F1000400E004460023A74A1AEB030B24
:100DC00042EB045A12E0E00707D02A463346384681
:100DD0004146FFF7D7FB074688462A46334610466A
:100DE0001946FFF7CFFB05460E466410002CEAD1EA
:100DF000DDE90001B9F1000F5A46534606DAFFF764
:100E000033FC3A464346FFF72FFC05E0FFF7BAFBF9
:100E10003A464346FFF7B6FB029A0AB181F0004119
:100E2000039AC2E90001B3E72DE9FF4F1F468DB0D9
:100E3000D7E901464FF0FF382E2045464FF0000914
:100E40000B90B9696D1C0E988847396A82468847AD
:100E50000028F6D1BAF1FF3F0AD024F4D064002E66
:100E600011DDBAF12B0F08D0BAF12D0F0BD102E032
:100E7000404611B08DE744F48064B9696D1C0E984A
:100E800088478246761E6946600501D52D2000E020
:100E90002B208DF8000001F1010B0DF1200809E075
:100EA000B9696D1C0E98884782460F9844F4007407
:100EB000761E0560002E02DDBAF1300FF0D00B99DE
:100EC0008A453ED144F0800406E00F99681CA9F1E0
:100ED000010944F400740860B9696D1C761E0E980F
:100EE000884782463028F0D02BE00B998A4505D1FF
:100EF000200603D444F08004761E18E050460FF01C
:100F000020F808B30DF11301761E44F400748B45EC
:100F100008D2AAF130000BF8010B200607D5A9F181
:100F2000010003E0200602D409F101008146A0057A
:100F300002D50F99681C0860B9696D1C0E98884726
:100F40008246002ED1DC53E0002E51DDBAF1650F50
:100F500002D0BAF1450F4BD1A00549D5B9696D1C36
:100F600024F44074761E0E9888478246002E0CDDCD
:100F70002B2804D0BAF12D0F07D144F48074B9693D
:100F80006D1C0E9888478246761EE00501D52D21FE
:100F900000E02B2108F8011BCDF82C8021E00DF199
:100FA0002901761E44F4007488450CD2AAF1300061
:100FB00010F0FF0088F8000002D10B99884509D98C
:100FC00008F1010806E0E00501D5244801E042F2FD
:100FD0000F708146B9696D1C0E98884782460F983C
:100FE0000560002E04DD50460EF0ABFF0028D6D180
:100FF000F9690E988847FF208BF8000088F80000F8
:101000000020069007904B466A4608A906A8FFF7FD
:1010100077FEA00502D46FF001002AE714F0240F38
:101020000AD0E00714D1DDE906123868031D3B60E1
:101030000068C0E900120BE0DDE90601FFF72AFCB9
:101040000146E00704D13868021D3A60006801607B
:1010500028460EE7000014400000F03FF1D8FFFFE3
:10106000426842B1016811F8013B23B1521EC0E948
:101070000012184670470121C160881E70474268FF
:101080005AB1C368016843B983688B4205D0491ED1
:10109000521CC0E90012002070474FF0FF3070472B
:1010A0002DE9F05F82460078002715468B460AF14D
:1010B0000104B946302801D09DB113E014F8010BAA
:1010C0000127782803D0582801D045B10AE00DB196
:1010D000102D07D10027102514F8010B02E0082578
:1010E00000E00A250026B0460EE005FB080005FBDF
:1010F00006F1012701EB10461FFA80F8B6F5803F94
:1011000000D3B94614F8010B294600F058F800281E
:10111000EBDABBF1000F05D00FB1641E00E05446BE
:10112000CBF80040B9F1000F06D00CF013FE0221FD
:101130000160C81EBDE8F09F48EA0640FAE7704724
:1011400010B588200EF064F8002801D0002101704D
:1011500010BD802902D808B1017809B1002070477C
:10116000012100F8081B704718B100F108029142F4
:1011700001D00020704700210170704710B5441A5B
:101180000346944209D28418114403E011F8013D4A
:1011900004F8013D521EF9D210BD40EA0104A40733
:1011A00003D009E010C9121F10C3042AFAD203E0C9
:1011B00011F8014B03F8014B521EF9D210BD3A2829
:1011C00000D2303820F02002412A01D3A2F13700AA
:1011D000884201D34FF0FF3070472DE9FF4F1C4686
:1011E00081B00021D4E9016791464FF0FF358A466E
:1011F0008846A1696D1C02988847216A8346884702
:101200000028F6D1BBF1FF3F0CD026F4C066002FBA
:101210001ADD700615D5BBF12B0F0AD0BBF12D0FCF
:101220000FD104E04FF0FF3005B0BDE8F08F46F479
:101230008066A1696D1C029888477F1E8346002F37
:1012400002DDBBF1300F03D0B9F1000F2AD025E049
:10125000A1696D1C46F400767F1E0298884783467C
:10126000002F05DDBBF1780F06D0BBF1580F03D07E
:10127000B9F1000F10D011E0B9F1000F02D0B9F1AF
:10128000100F0BD1A1696D1C26F400767F1E029809
:1012900088478346102000E0082081464FEAE97025
:1012A000009017E00A20F8E74346AAFB092803FB51
:1012B0000980DDF800C07F1E0AFB0C0112EB0B0A4F
:1012C00041EBEB78A16946F4007605F1010502983F
:1012D00088478346002F06DD49465846FFF76FFFD3
:1012E0005FEA000BE0D5E16902988847B00502D4B7
:1012F0006FF0010098E7F00718D1700610D570055F
:10130000514605D50023D1EB030163EB080200E051
:1013100042462068031D23600068C0E9001205E012
:101320002068011D21600068C0E900A828467BE70D
:101330002DE9FF5F1D464FF0FF3BD5E90146914681
:101340005F464FF00008A9697F1C01988847296A09
:10135000824688470028F6D1BAF1FF3F0CD024F42A
:10136000C064002E19DD600614D5BAF12B0F09D028
:10137000BAF12D0F0ED103E0584604B0BDE8F09F3E
:1013800044F48064A9697F1C01988847761E8246D0
:10139000002E02DDBAF1300F03D0B9F1000F26D0D4
:1013A00032E0A969761E44F400747F1C01988847D6
:1013B0008246002E05DDBAF1780F06D0BAF1580F3B
:1013C00003D0B9F1000F10D01EE0B9F1000F02D028
:1013D000B9F1100F18D1A969761E24F400747F1C8E
:1013E000019888478246102002E0082000E00A2089
:1013F000814609E008FB0908A969761E44F40074D7
:101400007F1C019888478246002E05DD49465046DC
:10141000FFF7D5FE0028EDDAE96901988847A005B5
:1014200002D46FF00100A8E7E00725D1600613D5CC
:10143000600502D5C8F1000000E0404629680A1D99
:101440002A600968220501D5087015E0220701D538
:10145000088011E008600FE02868011D296000681D
:10146000210502D580F8008006E0210702D5A0F80A
:10147000008001E0C0F8008038467EE72DE9FF5F7C
:10148000D2E901A74FF00008916999461446DDF8AA
:1014900038B0464601988847054659EA0B0005D002
:1014A00009E0A169761C019888470546216A28460B
:1014B00088470028F5D1681C03D05FEACA7005D0C0
:1014C00015E04FF0FF3004B0BDE8F09F2068011D2B
:1014D0002160D0F800800AE05FEACA7001D108F804
:1014E000015BA169761C7F1E019888470546002F85
:1014F0001ADD681C18D0B9F1000F0DD0E81705EB04
:10150000D060421120F01F0059F822102A1A012041
:1015100090400142E0D107E0BBF1000FDCD1216A2D
:10152000284688470028D7D0E16901988847BBF151
:10153000000F07D1002E05DD5FEACA7002D100213D
:1015400088F80010A068B84203DDBBF1000F03D09B
:1015500017B16FF00100B6E73046B4E702681144F6
:101560001378016018467047D160044951610449FD
:10157000116200211161114600F022B85D150008CA
:10158000690200080EB540F2334202920022CDE912
:1015900000221346FFF792FA03B000BD00DE2DE9EA
:1015A000F04117460E46054633B107FB0354E41BD2
:1015B0002046B047A542FAD1A5F10800BDE8F08168
:1015C0002DE9F34F8BB04FF0000801F10C000C46F1
:1015D0004FF0010B46460DF1080A019062690121A6
:1015E00001989047051E2DD0252D2CD0216A8847C3
:1015F000C0B16269012101989047216A884700289B
:10160000F7D1411E62690198904700E0761CA169FC
:101610000B988847216A88470028F7D1E1690B9821
:101620008847DBE7A1690B9888470746A84201D1A4
:10163000761CD3E7E1690B9888477F1C02D1B8F18B
:10164000000F6FD046E1002762693D463946019898
:1016500090472A2804D16269012101989047012509
:10166000DFF884926269012101989047A0F130016E
:101670000A290AD24F45E5DC07EB870100EB410759
:10168000303FDFD445F01005ECE7E90601D46FF0F8
:1016900000476C280AD04C2814D0682815D06A2836
:1016A0000DD074281CD07A281AD01DE0626901215F
:1016B000019890476C2802D045F0040514E045F0ED
:1016C00002050DE045F020050AE06269012101985C
:1016D0009047682802D045F0080505E045F400650C
:1016E0006269012101989047C4E9015765283DD0FE
:1016F00019DC58287AD00CDC452837D004DC2528A2
:1017000026D0412831D131E046282FD047282CD18E
:101710002CE05B2877D0612828D063287CD064280F
:1017200023D15AE0D0E06F2848D008DC66281DD0CD
:1017300067281BD0692821D06E2816D127E0702891
:1017400045D0732868D0752847D078280DD14DE052
:10175000A1690B988847054625283FF469AFE169E0
:101760000B9888476D1C3FF46AAFB3E023466A4686
:101770006FF001000B99FFF757FB9EE045F040002A
:101780006060A80723464FF0000236D43EE0E80729
:101790007FF447AF2068011D21600068290501D54D
:1017A00006701BE7290701D5068017E7A90703D5AF
:1017B000F117C0E9006111E706600FE745F040004E
:1017C0006060A80723464FF0080216D41EE040F6DA
:1017D0000E0125EA0100606016E045F040006060FF
:1017E000A80723464FF00A0207D40FE045F0400057
:1017F0006060A80708D5234610226FF001000B99FE
:10180000FFF7EBFC59E007E0234610226FF00100E0
:101810000B99FFF78DFD50E04FF000094F464B4606
:10182000632802D05B2806D040E0E80601D40120FE
:10183000A06001273AE062690121019890475E2883
:1018400005D14FF001096269494601989047216925
:1018500039B900210A46534643F82120491C08297A
:10186000FADBB0B3216969B9C11700EBD16253113A
:101870000AEB830122F01F02821A01200B689040BC
:1018800003430B6062690121019890475D28E8D10C
:10189000B9F1000F09D00020514651F82020D24361
:1018A00041F82020401C0828F7DB02AB22460097B5
:1018B0006FF001000B99FFF7E1FD00280CDA401CE6
:1018C00008D1BBF1000F05D04FF0FF300DB0BDE8DF
:1018D000F08FFFE74046F9E7E90701D108F1010879
:1018E00006444FF0000B79E6CCCCCC0C2DE9F0414E
:1018F00016461F460C46851B02E02846B847AD1B1E
:10190000641EFAD2BDE8F08170B58C1810F8015B46
:1019100015F0070301D110F8013B2A1106D110F888
:10192000012B03E010F8016B01F8016B5B1EF9D18C
:101930002B0705D40023521E0DD401F8013BFAE712
:1019400010F8013BCB1A921C03E013F8015B01F87D
:10195000015B521EF9D5A142D8D3002070BD38B525
:1019600004466846AFF300800146204623F036FA6D
:1019700038BD000070B50A4C4FF408752946204662
:1019800000F092F800280AD0204600F08AF80549B5
:10199000888029462046BDE8704000F008B870BD38
:1019A0000024014084000020C943016070476FEAB1
:1019B0001121016070470029816802D041F00101C6
:1019C00001E021F0010181607047000070B5244DF5
:1019D0000446244E687840B90020FF213154401C51
:1019E000C0B21228FAD30120687024B3012C22D08F
:1019F000022C20D0032C1ED0042C1CD0052C1AD075
:101A0000062C18D0072C16D0082C14D0092C12D074
:101A10000A2C10D00B2C0ED00C2C0CD00D2C0AD074
:101A20000E2C08D00F2C06D0102C04D0112C02D074
:101A30004FF0FF3070BD204600F016F8401C02D079
:101A40006FF0010070BD2878122802D36FF00200F9
:101A500070BD3454401CC0B22870401E70BD0000E0
:101A6000E0010020D45E0220094910B502460020A2
:101A7000064B097804E01C5C944205D0401CC0B2BF
:101A80008842F8D34FF0FF3010BD0000D45E022032
:101A9000E0010020014600208968490700D50120A7
:101AA0007047C06C80B2704710B502460020546881
:101AB0000B0AC9B20C401168194202D0002C00D0A8
:101AC000012010BD014600208968090700D50120CA
:101AD0007047002A4268C9B201D00A4300E08A4335
:101AE0004260704710B542680E4B0C791A400B6883
:101AF00042EA04221343436083680B4A1340D1E94E
:101B0000024222434C7943EA44031A438260C26A88
:101B1000097C22F47002491EC9B242EA0151C16235
:101B200010BD0000FFFEF0FFFDF7F1FD70B50724CA
:101B300009290AD9C568A1F10A0606EB4606B44090
:101B4000A543B3401D43C56007E0056901EB4106AD
:101B5000B440A543B3401D4305611F23072A09D2A2
:101B6000446B521E02EB820293409C4391400C4313
:101B7000446370BD0D2A09D2046BD21F02EB8202AE
:101B800093409C4391400C43046370BDC46A0D3A7A
:101B900002EB820293409C4391400C43C46270BDAF
:101BA0000D4910B5884202D1012144150AE00B49C4
:101BB000884202D10121041504E0094988420AD172
:101BC0000121CC03204600F08BFF2046BDE81040E9
:101BD000002100F085BF10BD002401400028014015
:101BE000003C0140816841F0080181607047002994
:101BF000816802D041F4A00101E021F4A0018160DC
:101C00007047816841F004018160704700210160E4
:101C1000017141718160C160012101747047000050
:101C200008B5024908440090008808BD006C0040D7
:101C300010B5012000F060FFBDE81040002000F06A
:101C40005BBF000008B5024A10440090016008BD67
:101C5000006C004010B54FF40074204600F046F8C8
:101C6000002817D0204600F027F80B49D1E90120C1
:101C7000904204D2BDE81040111A02F011BC07488E
:101C8000B0F80C21D0F800010261C868BDE810402E
:101C900018F016BF10BD000098010020F84203089C
:101CA0000029016802D041F0010102E04FF6FE7206
:101CB0001140016070470000C10002D50249086070
:101CC0007047024948607047040402400000024027
:101CD0000021016041608160C160016141618161F9
:101CE000C1610162416281627047000001460020CB
:101CF000CA0001D5034A00E0034A12680A4200D034
:101D0000012070470004024000000240002A0268DF
:101D100001D00A4300E08A430260704730B503688F
:101D200047F6F07293430C6A8A682243D1E904456E
:101D30002C4322438C692243CC6922434C6A2243C0
:101D40008C6A22431A430260CA6842600A68826051
:101D50004968C16030BD000001684FF6FE72114055
:101D600001600021016041608160C1603149314AF8
:101D70000839904203D1486840F00F0006E02D4A30
:101D80001432904204D1486840F0F0004860704737
:101D9000284A2832904203D1486840F47060F5E741
:101DA000244A3C32904203D1486840F47040EDE749
:101DB000204A5032904203D1486840F47020E5E751
:101DC0001C4A6432904203D1486840F47000DDE759
:101DD000184A7832904203D1486840F07060D5E7E5
:101DE000154A111F904203D1086840F00F0006E029
:101DF000114A1432904204D1086840F0F0000860A3
:101E000070470D4A2832904203D1086840F4706050
:101E1000F5E7094A3C32904203D1086840F470402B
:101E2000EDE7054A50329042EAD1086840F470204C
:101E3000E5E70000080002400804024070B501F028
:101E400091F90E484FF47A714FF0FF350068B0FBFE
:101E5000F1F1491EB1F1807F0AD24FF0E0246161B7
:101E60000F2128460BF066FF0020A06107202061AB
:101E70002846BDE8704000210BF05CBFEC0100205B
:101E800010B5012000F00CF9002808D004480068C3
:101E900000B18047BDE81040012000F0D9B810BD66
:101EA0000C5F022070B54FF48065284600F0F8F80A
:101EB000234C28B1A16A01B18847284600F0C8F830
:101EC0004FF40065284600F0EBF828B1E16A01B153
:101ED0008847284600F0BCF84FF48055284600F0AB
:101EE000DFF828B1216B01B18847284600F0B0F82F
:101EF0004FF40055284600F0D3F828B1616B01B1CA
:101F00008847284600F0A4F84FF48045284600F0A2
:101F1000C7F828B1A16B01B18847284600F098F8AE
:101F20004FF40045284600F0BBF8002807D0E16BCD
:101F300001B188472846BDE8704000F089B870BDFF
:101F40000C5F022010B5022000F0AAF8002808D08B
:101F50000448406800B18047BDE81040022000F00E
:101F600077B810BD0C5F022010B5042000F098F87F
:101F7000002808D00448806800B18047BDE81040C0
:101F8000042000F065B810BD0C5F022010B50820D9
:101F900000F086F8002808D00448C06800B18047E7
:101FA000BDE81040082000F053B810BD0C5F0220BF
:101FB00010B5102000F074F8002808D0044800691B
:101FC00000B18047BDE81040102000F041B810BDBE
:101FD0000C5F022070B5202000F062F81B4C28B185
:101FE000606900B18047202000F032F8402000F006
:101FF00057F828B1A06900B18047402000F028F8C8
:10200000802000F04DF828B1E06900B180478020C1
:1020100000F01EF84FF48075284600F041F828B112
:10202000216A01B18847284600F012F84FF4007584
:10203000284600F035F8002807D0616A01B18847CA
:102040002846BDE8704000F003B870BD0C5F022068
:1020500001490860704700001404014010B500F009
:1020600055F9042810D8052817D2DFE800F0030539
:1020700007090B00062410E007240EE008240CE0FA
:1020800009240AE00A2408E0411F042901D8172482
:1020900003E00A38052800D82824204610BD000097
:1020A000064A014600201268044B0A4014331B689C
:1020B0000B4202D0002A00D00120704700040140EA
:1020C00030B51A498379026853B30B6893430B60A8
:1020D0000A1D13680468A343136002790A44136855
:1020E000046823431360114A083213680468A34349
:1020F0001360131D1C680568AC431C604479102CE8
:1021000005D021440A68006802430A6030BD1168A6
:10211000046821431160196800680143196030BDEB
:102120000079084401689143016030BD000401401A
:102130002DE9FE431E46DDF8289017460D468046E1
:1021400050282DD200F0E2F804460F2828D8154870
:10215000012140F82450084600F0B6FC404600F04B
:10216000E7F8214600F0BEF8012505FA04F00090DA
:1021700000208DF804008DF805708DF80650684633
:10218000FFF79EFF4046FFF769FF8DF808008DF8C6
:1021900009608DF80A908DF80B5002A800F0BCFB86
:1021A000BDE8FE830C5F022070B5A52500F04CF859
:1021B00000B100254FF08056304600F081F8042829
:1021C00025D1144C1248A0601348A060206940F04B
:1021D00020002061206940F040002061304600F07E
:1021E0006FF804280DD1206920F0200020612069BB
:1021F00040F010002061094805804FF4704000F065
:102200005FF8052803D0216921F01001216170BD1C
:102210002301674500200240AB89EFCD00F8FF1F86
:1022200008490420CA68D20701D001207047CA6853
:10223000520701D502207047C968C906FBD50320A3
:10224000704700000020024003490020C969890747
:1022500000D501207047000000200240F0B506467E
:102260004FF470470D46384600F02AF8042812D182
:102270000A4C0948A0600A48A060206940F010009C
:1022800020613580384600F01BF8052803D021690D
:1022900021F010012161F0BD2301674500200240BB
:1022A000AB89EFCD044803494160044A4260416470
:1022B000426470472301674500200240AB89EFCD9F
:1022C00000B50346FFF7ACFF03E000BFFFF7A8FF30
:1022D0005B1E012803D0002B00D1052000BD002B80
:1022E000F4D1FAE710B58A0721F003040649130F69
:1022F00021440F228C689A4094438C608A689840ED
:1023000002438A6010BD000000000140024901EB59
:102310000010808900F002B8F8420308002102E0B2
:102320004008491C89B20128FAD8C8B27047000099
:102330000F4901EB00100F490068884201D10020CD
:1023400070470D49884201D1012070470B498842EE
:1023500001D1022070470A49884201D10320704709
:102360000849884201D104207047FF2070470000CF
:10237000F842030800080140000C01400010014031
:102380000014014000180140F0B5CA78002502F0A1
:102390000F03D20601D58A7813430A784FF00F0E47
:1023A00012F0FF0F4FF001021CD004680F8802FAF0
:1023B00005F63740B74211D14FEA850C0EFA0CF7FB
:1023C00024EA070703FA0CF43C43CF78282F02D005
:1023D000482F02D002E0466100E006616D1C082D26
:1023E000E4D304600C88FF2C1ED944685FF000061B
:1023F00006F1080702FA07F50F882F40AF420FD108
:102400004FEA860C0EFA0CF7BC4303FA0CF73C4378
:10241000CF78282F00D14561CF78482F00D10561B2
:10242000761C082EE4D34460F0BD10B501210846A7
:1024300000F04AFB0121BDE810404806AFF30080E0
:1024400070B5B0F1004F63D96FF07F4303EAD0134A
:1024500000F07F04200904F00F04850004FA05F55C
:10246000062B14D2DFE803F00305080B0E11F44A23
:102470000DE0F34A121D0AE0F14A083207E0F04A83
:102480000C3204E0EE4A103201E0ED4A143270B131
:10249000012810D002281DD003281FD0042821D0E5
:1024A000052823D0062825D0072827D02AE0106841
:1024B00020F00F0025E0012B03D0106820F0F00081
:1024C0001FE01068042C02D920F0C00019E020F0B1
:1024D000300016E0106820F4706012E0106820F4FC
:1024E00070400EE0106820F470200AE0106820F4BC
:1024F000700006E0106820F0706002E0106820F0C4
:1025000070401060012902D110682843106070BD2E
:10251000CB4A4FF48025203AA8420FD040DCB0F5DA
:10252000007F71D01EDC10286FD008DC01286DD030
:10253000022803D0042801D00828E8D198E03028E8
:1025400078D0402877D0C02876D0B0F5807FDED113
:10255000506820F4407050600129D8D1506840F490
:1025600080704BE1B0F5804F67D00CDCB0F5407F58
:102570007AD0B0F5006F78D0B0F5406F76D0B0F576
:10258000805FC4D174E0B0F5C04F70D0B0F5004F9B
:102590006ED0B0F5803F6BD0B0F5003FB7D167E0AB
:1025A000B0F1005F77D032DCB0F5000F74D015DCED
:1025B000B0F5002F5CD0B0F5801F59D0B0F5001FEA
:1025C0006BD0B0F5800FA2D1506820F4800050602D
:1025D00001299CD1506840F480000FE1B0F1807F68
:1025E00070D0B0F1007F6ED0B0F1806F6CD0B0F1E0
:1025F000805F8CD1506820F080505060012986D1D6
:10260000506840F08050F9E073E047E039E08D4CCD
:10261000031BA0421DD011DCB0F1804F73D0A0F19C
:102620008043203B15D0B3F5787F12D0864CE3422F
:102630008DD10EE03CE048E051E086E0AB4277D03F
:10264000B3F5402F75D0B3F5A01F73D0B3F5E01FDD
:1026500097D1D369C0F315008343D361012990D189
:10266000D1690143D16170BD4EE057E063E076E08F
:102670005368834353600129F5D151680143516088
:10268000F1E75068714B184050600129EBD1506858
:1026900040F00100B2E094E09DE0A6E0506820F038
:1026A000300050600129DED1506840F01000A5E0F4
:1026B000506820F0300050600129D4D1506840F0BB
:1026C00030009BE055E05EE067E0506820F0C0001D
:1026D00050600129C7D1506840F040008EE050683A
:1026E00020F0C00050600129BDD1506840F0C0000A
:1026F00084E0506820F4407050600129B3D15068E4
:1027000040F400707AE052E0506820F4407050606D
:102710000129A8D1506840F440706FE0506820F45F
:102720004060506001299ED1506840F4006065E02F
:1027300066E06FE078E0506820F440605060012966
:1027400091D1506840F4406058E0506820F4C04097
:102750005060012987D1506840F480404EE05068B5
:1027600020F4C040506001298AD1506840F4C04034
:1027700044E0506820F0E0605060012986D1506844
:1027800040F080703AE0506820F0E060506001292D
:1027900089D1506840F0007030E0506820F0E0606F
:1027A0005060012989D1506840F0806026E050686F
:1027B00020F08040506001298CD1506840F080406A
:1027C0001CE0506820F00050506001298CD1506806
:1027D00040F0005012E0506820F4000050600129E1
:1027E0008CD1506840F4000008E0506820F40010DC
:1027F000506001298DD1506840F40010506032E7DC
:10280000D06920F4C010D0610129F8D1D06940F41A
:10281000002012E0D06920F4C010D0610129EED16F
:10282000D06940F4801008E0D06920F4C010D06175
:102830000129E4D1D06940F4C010D06113E7000051
:1028400020000140000004402000FEFFFEFFFF7F4B
:1028500038B504462148844201D1042012E02048C2
:10286000844201D108200DE01E48844201D110208D
:1028700008E01D48844201D1202003E01B48844227
:102880001DD14020E2B1012A1CD0022A1CD0032A0B
:102890001CD0052A1CD0062A1CD0082A1CD0072AC6
:1028A0000DD11C22ADF800108DF803208DF80230F8
:1028B000012100F009F969462046FFF765FD38BDA2
:1028C0000422EFE74822EDE72822EBE70022E9E7C0
:1028D0001022E7E71422E5E71822E3E700080140A9
:1028E000000C01400010014000140140001801409C
:1028F00081070CD16421B0FBF1F201FB120141B957
:102900004FF4C871B0FBF1F201FB120008B10020D6
:10291000704701207047000070B50F23C47801781C
:102920000122F4B1144C2468457804F4E064C4F541
:10293000E064240AC4F10406E3408478B5401C40F6
:102940002C4301F1E021230181F80034007800F0EC
:102950001F018A404009800000F1E020C0F80021FA
:1029600070BD01F01F0082404809800000F1E020A6
:10297000C0F8802170BD00000CED00E00249084362
:1029800002490860704700000000FA050CED00E005
:102990002DE9F04116460C4650280ED2134901EBA2
:1029A0000015696849B1A97B39B134B12EB1104F16
:1029B00004FB06F13A68914202D90020BDE8F0819B
:1029C000082120F043FF38680021B0FBF4F0B0FB91
:1029D000F6F6686800F0DAFD761E641EAB7BB2B2D4
:1029E000A1B2686800F04CFCA87BE7E7F842030856
:1029F000EC010020014908627047000000000E420F
:102A0000827A0AB1002202E0C27A3AB1012242720D
:102A1000427A50F822000860012070470020704779
:102A2000027A437A9A4203D1427A32B10022027288
:102A3000027A50F82200086070470122F7E700236D
:102A400080E80E007047427A00210A301154704726
:102A5000037A012200F10A015A54017A11B10021CE
:102A6000017270470121FBE7034A5168034B19408B
:102A7000014351607047000000100240FF3FFFEF2C
:102A8000044A0029516901D0014300E081435161AA
:102A90007047000000100240044A0029D16901D0AB
:102AA000014300E08143D161704700000010024003
:102AB000044A0029116901D0014300E081431161FA
:102AC0007047000000100240044A0029916901D0BB
:102AD000014300E081439161704700000010024013
:102AE000044A0029D16801D0014300E08143D1604C
:102AF0007047000000100240014908607047000064
:102B00004004424270B53D494A683D4B12F00C0208
:102B100004D0042A0AD0082A08D109E00A6B9201DD
:102B200004D54A6D920501D5364A32E0036031E0A2
:102B30004A6802F480344A68334D2A4012F0C04F8C
:102B400005D1C2F383450F2D01D0022600E00126F6
:102B5000302505EA5265C2F383421543721964B108
:102B60004C68A4030BD54C6D032505EA1434A41C52
:102B7000B3FBF4F35343036004E0244B00E0204B29
:102B80005A4302604A68002A04DB214A03689342E0
:102B900000D902604A684B68C2F302121C061D4B42
:102BA00001D59C5C00E000240268E24042604C6871
:102BB0004D68C4F301246D0501D51C5D00E00024BF
:102BC00022FA04F484604C684D68C4F3C124AD0457
:102BD00001D51B5D00E00023DA40C2604B68496804
:102BE000C3F38133C90001D543F004030949083117
:102BF000C95CB2FBF1F1016170BD00000010024040
:102C000000127A00006CDC0200003C6000093D000C
:102C100000A24A041048030802460020530909494B
:102C2000012B0BD0022B0BD0D1F8241002F01F0285
:102C3000012393400B4200D0012070470968F5E75B
:102C4000096AF3E7001002400649002281F82020BB
:102C500081F82020012802D0042802D1052081F823
:102C600020007047001002400149086070470000D2
:102C70003C04424202490A6A02430A627047000069
:102C80000010024005490128486D03D020F03000B3
:102C90004865704740F03000FAE70000001002403D
:102CA00002490A8882430A807047000004280040D5
:102CB0000248018841F0100101807047042800405B
:102CC0000248018821F0100101807047042800406B
:102CD0002DE9F04700F066F82E4F0646B0FBF7F3FB
:102CE0002D482E4C018899422ED0038040F2B275B7
:102CF0004FF4B7794FF4B6780DE0A8B2FFF7F8FDBE
:102D000030B14B4502D3A3F5B77303E06D1C04E06B
:102D1000A3F26D136D1C4345EFD8A5800025DFF8A5
:102D200080800BE0A088FFF7E3FD08B1012D2DD0D6
:102D300018F80500984203D81B1A6D1C1C2BF1D201
:102D40006D1CA5715B1CE371B6FBF7F007FB10600F
:102D50004FF46161B0FBF1F22270B0FBF1F201FBC4
:102D600012033C22B3FBF2F36370B0FBF1F301FBFF
:102D70001300B0FBF2F102FB1100A070E279A1791F
:102D8000A08800F019F82072BDE8F0871D2BD7D37A
:102D90001D3BD2E780510100E8010020885F02203E
:102DA00004480308034800880249091F098840EACB
:102DB000014070471C28004030B56424B0FBF4F398
:102DC000B0FBF4F5DBB204FB1500132B01D9643022
:102DD000C0B200EB90040723B4FBF3F503FB1544EA
:102DE000084D22440D44800715F8015C2A4492B234
:102DF00003D1032901D2521E92B2B2FBF3F003FBBE
:102E0000102030BDF84703081CB501214FF0C05019
:102E1000FFF742FE0120FFF7EDFD0420FEF700FF63
:102E200045F25104A0422DD0FEF702FF0120FFF72A
:102E30000BFF4120FFF7F0FE0028FAD04FF480701E
:102E4000FFF718FF0120FFF70FFF00F0B3F800F0C5
:102E5000A9F847F6FF7000F095F800F0A3F80820F5
:102E60000021CDE9000103460246014640F2E2702E
:102E700000F014F800F096F82146BDE81C4004204C
:102E8000FEF7E0BE00F096F800F08CF80120FFF7A6
:102E900007FFBDE81C4000F085B800002DE9F05F99
:102EA0009A4605460023A0F2B270DDF828B091469C
:102EB0008846822802D30120BDE8F09F40F2B27418
:102EC000244E254F07E0A0B2FFF712FD08B13344AE
:102ED00000E03B44641CAC42F5D3A8F10100C6B24B
:102EE00000241E4FDFF878800EE0385D40F2A32109
:102EF00010FB01F003EBC0132846FFF7F9FC10B1FB
:102F0000012C00D14344641CB442EED3A9F101006A
:102F1000C0B240F2A32110FB01F0CAEB4A1203EB4E
:102F2000C010C2EB0A2100EB0110CBEB0B1100EB40
:102F300081000B99441801214FF0C050FFF7ACFD00
:102F40000120FFF757FD204600F00CF800F02AF8AA
:102F50000020B1E70085E2018033E1010448030865
:102F60008051010000B50246FFF7A2FE0449100C93
:102F70000880081D02805DF804EBFFF7A1BE000089
:102F80001828004000B50246FFF792FE0449C2F33C
:102F900003400880081D02805DF804EBFFF790BE37
:102FA00008280040024801888906FCD570470000C7
:102FB000042800400448018821F0080101800188AC
:102FC0000907FCD57047000004280040002901884B
:102FD00002D041F0400101E021F040010180704742
:102FE000002A828801D00A4300E08A438280704729
:102FF000144910B588420AD1841401212046FFF7F4
:103000006FFD2046BDE810400021FFF769BD0E4965
:10301000884202D1012104140AE00C49884202D1FD
:103020000121C41304E0B0F1402F0AD101210C04A6
:103030002046FFF73DFD2046BDE810400021FFF788
:1030400037BD10BD0030014000380040003C00405A
:1030500030B5028802F441538A891204828802D56D
:1030600042F4807201E022F4807282800A884C88E7
:10307000CD8822438C882C4322430C8922434C89DF
:1030800022438C89C4F30E042243CC8922431A4381
:103090000280828B22F400628283098A018230BD21
:1030A0001CB50020284C01900090216841F00101DE
:1030B00021604FF6FF71226802F002020092019A2D
:1030C000521C0192009A12B9019A8A42F3D12168E6
:1030D000890737D50120009060686060606820F43F
:1030E00060506060606840F400506060606820F488
:1030F000E0606060606840F4806060606068134910
:10310000084060606068124908436060206840F0D1
:103110008070206020688001FCD50120FFF7B2FD9F
:10312000606820F003006060606840F0020060604A
:103130006068C0F381000228FAD1BDE81C4000207D
:10314000FFF7A0BD00901CBD00100240FFFFC01F94
:1031500000002CE002480168491C01607047000033
:10316000E401002070B525494868254B10F00C0299
:10317000244804D0042A0AD0082A08D109E00A6B9E
:10318000920104D54A6D920501D51F4A2AE00360D9
:1031900029E04A6802F480344A684A6830251B4EA8
:1031A000324012F0C04F05D1C2F383460F2E01D03A
:1031B000022600E0012605EA5265C2F38342154368
:1031C00072195CB14C68A4030AD54C6D032505EA5D
:1031D0001434A41CB3FBF4F35343D8E70C4B00E0C6
:1031E000074B5A4302604968064AC1F30311121D96
:1031F000515C0268CA40026070BD000000100240CD
:1032000000127A00EC010020006CDC0200003C603F
:1032100000093D00144810B5016841F470010160D7
:103220001248016841F0010101604168104A1140F3
:10323000416001680F4A11400160016821F480215A
:10324000016041680C4A11404160016B0B4A11401A
:1032500001634FF41F018160FFF722FF02494FF025
:1032600000608039086010BD88ED00E00010024069
:103270000C00FFE8FFFFF6FEFFFF001700FFFEFE59
:10328000F0B50446444889B01E4615460F468442B0
:1032900026D0B4F1804F23D04048844220D040480B
:1032A00084421DD03F4884421AD03F48844217D000
:1032B0003E48844214D03E48844211D03D48844266
:1032C0000ED03D4884420BD03C48844208D03C4854
:1032D000844205D03B48844202D03B48844258D1C6
:1032E0000121204600F016FBADF814500025079789
:1032F000ADF8205005A92046069500F0D1FA6846A1
:1033000000F046FA7020ADF800000220ADF80C0085
:103310000820ADF80E000120ADF81050ADF81250A5
:10332000ADF80200ADF804500295012E06D0022E31
:103330000DD0032E14D0042E23D11AE06946204666
:1033400000F050F90821204600F072F919E06946B2
:10335000204600F073F90821204600F0A5F910E09E
:103360006946204600F0AAF90821204600F0DAF963
:1033700007E06946204600F0DBF90821204600F00E
:10338000FDF90121204600F00BF90121204600F053
:10339000FDF809B0F0BD0000002C01400004004021
:1033A00000080040000C00400010004000140040E5
:1033B00000340140004C01400050014000540140E5
:1033C00000180040001C00400020004070B50F4D68
:1033D0000121284600F0F2F80D4C30B1216801B10E
:1033E00088470121284600F0CEF80A4D01212846E1
:1033F00000F0E4F8002808D0616A01B18847284647
:10340000BDE87040012100F0BEB870BD002C014045
:103410004C5F02200050014010B501218C0720466E
:1034200000F0CCF8002809D00548416801B1884770
:103430002046BDE81040012100F0A5B810BD0000F5
:103440004C5F022010B5094C0121204600F0B6F86F
:10345000002809D00648816801B188472046BDE8A8
:103460001040012100F08FB810BD000000040040A2
:103470004C5F022010B5094C0121204600F09EF857
:10348000002809D00648C16801B188472046BDE838
:103490001040012100F077B810BD00000008004086
:1034A0004C5F022010B5094C0121204600F086F83F
:1034B000002809D00648016901B188472046BDE8C7
:1034C0001040012100F05FB810BD0000000C00406A
:1034D0004C5F022010B5094C0121204600F06EF827
:1034E000002809D00648416901B188472046BDE857
:1034F0001040012100F047B810BD0000001000404E
:103500004C5F022010B5094C0121204600F056F80E
:10351000002809D00648816901B188472046BDE8E6
:103520001040012100F02FB810BD00000014004031
:103530004C5F022070B50F4D0121284600F03EF887
:103540000D4C30B1E16901B188470121284600F0F6
:103550001AF80A4D0121284600F030F8002808D05A
:10356000216B01B188472846BDE87040012100F079
:103570000AB870BD003401404C5F0220001C0040BE
:10358000C94301827047C9430182704700290188FD
:1035900002D041F0010101E021F0010101807047FA
:1035A000002930F8441F02D041F4004101E0C1F38A
:1035B0000E0101807047018582827047024600201B
:1035C000138A92890B4202EA010202D0002A00D03B
:1035D00001207047002A828901D00A4300E08A4313
:1035E0008281704730B5028C22F001020284028C85
:1035F0008488038B0D8823F073031D438B8922F08D
:10360000020213434A8824F440741A4322F0080348
:10361000CA891A4322F004038A881A430B8A234377
:103620004C8A1C438480058389684163028430BDD1
:10363000028B22F008020A430283704770B5028CA5
:1036400022F010020284048C8688028B0B7822F40C
:10365000E6454FF6FF7202EA03232B4324F02005D0
:103660008C8926F4406602EA04142C434D8802EA51
:1036700005152543CC8925F0800502EA04142C4366
:103680008D8824F0400402EA051525430C8A02EADD
:10369000840434434E8A02EA8602224382800383F2
:1036A00089688163058470BD028B4FF6FF7322F435
:1036B000006203EA012111430183704770B5028C57
:1036C00022F480720284028C8688838B0D8823F01A
:1036D00073031D4322F400740B7B4FF6FF7202EA62
:1036E000032323438C7826F4405602EA04241C4327
:1036F0008B7B24F4006402EA0323234323F48064D5
:103700000B7902EA032323430C8A02EA04143443AC
:103710004E8A02EA06122243828085838968C16349
:10372000038470BD828B22F008020A4382837047B3
:1037300070B5028C22F480520284048C8688828BBD
:103740000B7822F4E6454FF6FF7202EA03232B437F
:103750000D7B24F4005402EA053525438C7802EAF7
:1037600004342C4326F480450E8A02EA86122A434A
:103770008280838389680164048470BD828B4FF6E4
:10378000FF7322F4006203EA012111438183704731
:10379000002101804180818081608181C18101821D
:1037A00041827047334910B5884202D10121C414C7
:1037B00055E0B0F1804F09D02F4988420DD1012149
:1037C0000220FFF775F9002102202DE001210846B3
:1037D000FFF76EF90021012026E02849884206D132
:1037E00001210420FFF764F9002104201CE0244992
:1037F000884206D101210820FFF75AF9002108204C
:1038000012E02049884206D101211020FFF750F92B
:103810000021102008E01C49884209D10121202004
:10382000FFF746F900212020BDE81040FFF740B91E
:103830001649884202D10121441410E014498842FB
:1038400002D10121CC040AE01249884202D10121AF
:103850000C0504E0104988420AD101214C0520469C
:10386000FFF73EF92046BDE810400021FFF738B9C8
:1038700010BD0000002C0140000400400008004082
:10388000000C0040001000400014004000340140D3
:10389000004C01400050014000540140C16270479B
:1038A0000288154B98420ED0B0F1804F0BD0134BCD
:1038B000984208D0124B984205D0124B984202D041
:1038C000114B984204D18B8822F0700213439AB2B4
:1038D0000E4B984206D00E4B984203D022F4407310
:1038E0008A891A4302808A68C2620A880285897BB3
:1038F0000186012181827047002C014000080040B0
:10390000000C004000340140000400400010004062
:1039100000140040254A904201D1C01433E0B0F1B8
:10392000804F04D0224A904203D102203BE0012084
:1039300039E0204A904201D1042034E01E4A9042EE
:1039400001D108202FE01D4A904201D110202AE029
:103950001B4A904201D1202025E01A4A904201D111
:10396000401410E0184A904202D14FF400200AE0BF
:10397000164A904202D14FF4801004E0144A90425B
:1039800003D14FF40010FFF79FB8124A904201D1C3
:10399000402008E0104A904201D1802003E00F4A05
:1039A000904202D18015FFF777B87047002C014094
:1039B0000004004000080040000C004000100040DF
:1039C0000014004000340140004C01400050014010
:1039D0000054014000180040001C0040002000403E
:1039E0007FB5044620480D46164601681F488442AC
:1039F00026D0B4F1804F23D01D48844220D01D48EA
:103A000084421DD01C4884421AD01C48844217D0DE
:103A10001B48844214D01B48844211D01A48844267
:103A20000ED01A4884420BD01948844208D0194855
:103A3000844205D01848844202D01848844212D1EA
:103A4000002D10D003AB02AA284600F04BF9032149
:103A50000020CDE900013346BDF80C20BDF8081068
:103A6000204600F01DF87FBDEC010020002C014035
:103A70000004004000080040000C0040001000401E
:103A80000014004000340140004C0140005001404F
:103A90000054014000180040001C0040002000407D
:103AA0002DE9FF4FDFF84481DFF844C15149524A04
:103AB000524BDFF84CB1DFF84CE1534E534FDFF877
:103AC0005091DFF850A185B00446404521D0B4F1B3
:103AD000804F1BD064451FD08C421DD094421BD018
:103AE0009C4219D05C4517D0744515D0B44213D010
:103AF000BC4211D0DFF8208144450DD04C450BD09D
:103B0000544509D045498C426DD137E001201C2530
:103B100036E00020192504E0644502D102201D256D
:103B200004E08C4202D103201E2504E0944202D11D
:103B30000420322504E09C4202D10520362504E011
:103B40005C4502D10620372504E0744502D10720E8
:103B50002C2504E0B44202D10820182504E0BC4220
:103B600002D10920192504E04C4502D10B202B2558
:103B700006E0544502D10C202C2501E0002D32D066
:103B8000274A089942F820102046FFF70BFE012132
:103B90002046FFF7BFFE06990020491E02910799B3
:103BA0008DF80E00491EADF80010ADF80C00019024
:103BB00069462046FFF774FE8DF8105012988DF874
:103BC000110013988DF8120001208DF8130004A83D
:103BD000FEF7A2FE01212046FFF7D2FC012211468A
:103BE0002046FFF7F7FC09B0BDE8F08F002C01403C
:103BF0000004004000080040000C0040001000409D
:103C00000014004000340140004C014000500140CD
:103C100000180040001C00400054014000200040FB
:103C20004C5F02207CB5044620480D4601682048C0
:103C3000844226D0B4F1804F23D01E48844220D045
:103C40001D4884421DD01D4884421AD01C4884421D
:103C500017D01C48844214D01B48844211D01B4802
:103C600084420ED01A4884420BD01A48844208D0AD
:103C70001948844205D01948844202D01848844229
:103C800012D101AB6A46284600F02CF8BDF80010AE
:103C90002046491EFFF702FEBDF804000122401E27
:103CA00081B22046FFF787FC7CBD0000EC010020BC
:103CB000002C01400004004000080040000C0040BF
:103CC000001000400014004000340140004C01404E
:103CD000005001400054014000180040001C00400A
:103CE0000020004010B50D4CB1FBF4F14843C1EB8E
:103CF0000111B0EB410F01D20A210AE008498842C4
:103D000002D24FF47A7101E044F62061B0FBF1F188
:103D100089B2B0FBF1F01180188010BD40420F0055
:103D200018FCE703014803F056B90000F0590220DF
:103D3000014803F050B900000C5C022070470A0AE9
:103D400001219140C943018070470029818902D037
:103D500041F4005101E021F4005181817047024695
:103D6000002012880A4200D00120704730B501F0CF
:103D70001F0201240025C1F3421304FA02F2012BB1
:103D80000FD0022B0FD0838A4FEA112100881342F3
:103D900004FA01F400EA040001D000B1012528462C
:103DA00030BD8389F0E7038AEEE710B5C1F3421313
:103DB00001F01F040121A140012B07D0022B07D0E5
:103DC0001430002A026805D00A4304E00C30F8E7FA
:103DD0001030F6E78A43026010BD000030B504469B
:103DE000008A85B00D464CF6FF710840E988014312
:103DF0002182A1894EF6F3100140A8882A89104338
:103E00006A890A431043A081A08A4FF6FF41084007
:103E1000A9890143A1826846FEF774FE19488442CD
:103E200001D1039800E00298A189090400EBC001C8
:103E300001EB0010296801D5490000E08900B0FBC2
:103E4000F1F06422B0FBF2F109010B096FF01805E3
:103E50006B4300EB8300A3891D044FF0320306D5AA
:103E600003EBC000B0FBF2F000F0070005E003EB4D
:103E70000010B0FBF2F000F00F000843208105B005
:103E800030BD0000003801408088C0F30800704752
:103E9000C1F308018180704700EB4100052902D27F
:103EA000B0F8010070470B2901D2808870471129B2
:103EB00001D2C088704700207047A0F14101192944
:103EC00000D82030C0B27047F0B589B00025144941
:103ED000044602468DF8005001260F468DF8015029
:103EE0002B46684606F024FDB0B922460DA11548C0
:103EF00005F0EEFD8DF80050224601238DF80150AB
:103F00003946684606F0A3FE060001D00EA100E087
:103F10000FA10C4805F0F0FD09B03046F0BD0000DF
:103F20006C09002053443A204175746F2063726518
:103F3000617465207061746820222573222E2E2EF4
:103F400000000000F059022073756363657373000D
:103F50006661696C6564000030B589B00D46242047
:103F60001AF086FB98B110F1080410D000208DF8EB
:103F700000008DF80100242269462046FDF7FEF876
:103F800000222946204606F043FB18B106E0002037
:103F900009B030BD20461AF0F5FB00242046F7E7B3
:103FA00070B5ACB014460D46684605F00BFE02A88D
:103FB00000222946064607F044F8A8B180220BA942
:103FC000304606F08CFF9DF8080010F0700F04D00A
:103FD0002F2020700BA9601C01E00BA92046FCF7E4
:103FE000DCF9304606F0D0FD6878002800D00C20BF
:103FF0002CB070BD70B505461FF070FB134CA16866
:10400000401AB0F57A7F02D94FF4FA6014E0002D1F
:1040100003DD608800F1640003E003DA6088A0F14A
:10402000640060806088642801D2642004E044F663
:104030002061884200D9084660801FF04FFBA060D5
:104040006088BDE87040052105F026BAA400002074
:10405000184810B50078C0070CD1164809F090FE3A
:1040600040B1062304221021134803F06DFB1148D0
:10407000AFF30080104803F0E1F900210E4803F08F
:10408000FFF800210C4803F0BBF80B4800F094F94E
:1040900019F0A6FD084800F029FA1DF06DFD00F0AA
:1040A0008BF804F0DBFFBDE810404FF47A7105F0A7
:1040B00019B80000740000200804002030BF7047C9
:1040C00070B50D4604F0C2FFA88104F0CBFFA873C1
:1040D000074D04462878844209D014B14FF4FA7091
:1040E00001E04FF42F70142105F0D6F92C7070BD4B
:1040F000A801002070B50D46084606F045FD08B140
:10410000002400E0022428461AF03CFB204670BD43
:1041100010B504465FF0000019F042FC002803D0FF
:1041200001680978A142F7D110BD000010B5084818
:1041300000F004F9064800F0E1F8054800F01AF92B
:10414000034800F0C7FABDE81040014800F03ABA51
:10415000040300204FF0FF3105F09EB9F8B5154675
:10416000134B0246406BDA60B1F90430B1F90040FC
:10417000B1F90670B1F902201E1BB91A491C761C50
:1041800016FB01F14E0000970168CF6C2146B8473D
:104190000848D0F80021B0F80C115161B0F84C106B
:1041A000006C016131462846BDE8F84000F078B95E
:1041B00098010020F842030810B50F4818F0C4F821
:1041C0000D482F2101700D4941600D4981600D4955
:1041D000C1600D4901610D4941610D4981610D4980
:1041E000C1610D4981620D4901620D494162BDE81D
:1041F000104018F0ADB800008C580220F74B0008B2
:10420000274A0008D94B0008854A0008FB4B0008E4
:10421000A54A0008D54A0008F5400008593F0008A3
:10422000A13F000810B5012186B04802FEF74CFC02
:104230004FF44040FEF718FC1E4C2046FDF7B0FC42
:104240006846FDF7E3FC00214FF46020CDE9020150
:104250008DF80410012000918DF805108DF81000E4
:1042600069462046FDF73EFC02212046FDF79CFBF7
:1042700001224FF408712046FDF72BFC4FF0E0219E
:104280004FF48020C1F8000101212046FDF793FB87
:104290002046FDF7A7FC2046FDF714FC0028FAD1C4
:1042A0002046FDF7AEFC2046FDF7F4FB0028FAD1CE
:1042B00006B010BD002401403EB505460C466846D8
:1042C00004F022FEBDF800209DF8021052024423A3
:1042D0009DF8030002EB432242EA411202432A8086
:1042E0009DF805209DF806009DF80710D20242EACD
:1042F000401040EA510020803EBD000038B5044621
:10430000402009F021FC30B10021009128232246F1
:1043100007A105F0E0FE0446064905F0DEFD204653
:10432000BDE838404FF4FA72034905F0D9BD0000EA
:10433000475053008D7900083179000838B5402086
:1043400009F002FC041E09D007F092FD024600208D
:1043500000900A2304A1204605F0BDFEBDE83840C8
:10436000034905F0BABD0000436C6F636B000000A9
:10437000C979000838B50446402009F0E5FB30B1A2
:10438000002100910823224607A105F0A4FE04465F
:10439000074905F0A2FD2046BDE838404FF4FA7207
:1043A000044905F09DBD0000506F77657200000064
:1043B000397A0008ED79000810B5104C10A215A14B
:1043C000206016A00FF0A8F90121206802F012F871
:1043D0000121206802F00AF82068002201680B6DB4
:1043E000114698470021206802F0B9F82068BDE81E
:1043F00010401F224FF6FF7102F001B87800002034
:1044000076302E33204D61792031352032303231F3
:104410000000000076312E3000000000582D54724C
:1044200061636B0010B501218CB00846FEF728FBD4
:10443000184C2046FDF790FC6846FDF749FC10201B
:104440000021029008910002CDE90901124800689C
:104450000190802005904FF6FF7003900F48079160
:1044600004910691009069462046FDF757FC0B48E1
:10447000012202210C38FEF7B3FD4FF0E0214FF48A
:104480000050C1F80001012202212046FDF73EFC48
:104490000CB010BD30000240980100200C300140EB
:1044A00070B50C460F490546B4F5803F08D34868FF
:1044B00008B9281948604FF6FF742819886002E08F
:1044C000002088604860084E00213046FDF7E8FB78
:1044D00005483038C56344633046BDE8704001216B
:1044E000FDF7DEBB980100203000024010B5044605
:1044F000FFF798FF0E484FF46143002201680D4812
:1045000016F03BFA0B48243016F046FA0949F02021
:104510002431088048800848C8600848C8610548B8
:104520004C634860BDE81040243016F055BA0000D6
:1045300098010020109600205D410008BD40000851
:1045400010B50D4C0B48617800EB01100168CA688A
:1045500080894240CA601FF0C1F8E168884207D9EB
:104560002078002804D16078BDE8104000F026BA19
:1045700010BD0000F8420308D001002010B5084823
:1045800001290BD0052908D0032908D105A004F082
:1045900033FDBDE8104004F023BD0021017010BDC3
:1045A000A400002053687574646F776E00000000EB
:1045B00010B504F073FC04F007FDBDE8104004F0F2
:1045C00043BC000038B50446402009F0BDFA30B1C4
:1045D00000210B460091224608A105F07CFD04460F
:1045E00009A105F051FD09A1204605F04DFD09493D
:1045F000204605F072FC0848046038BD5265636FC0
:10460000726465720000000047505300436C6F6392
:104610006B000000A58100082800002010B50A4C9E
:10462000207800280ED115200FF006FA38B10120AD
:10463000616801446160BDE81040FFF7DBBC4FF0EA
:10464000FF30F5E710BD0000A4000020CAB200232F
:1046500021211DF0AEB8084604F022BD2DE9F74F28
:1046600092B0DDE9120100F023F98346002729E02A
:104670001298C7EBC70100EB81061499D6E9008AAE
:10468000B2681192B6F81490D6E9034531B12146CB
:104690002C460D4608EB0901ABEB0108684615F006
:1046A000FBFAC8F100000B901198019008A8CDF812
:1046B00000A0079480E83002B0690690684615F0C3
:1046C0008DFB7F1C13988742D2D315B05846BDE8A6
:1046D000F08F000038B50446402009F035FA30B1BB
:1046E00000210091382322460BA105F0F4FC04467A
:1046F0000CA105F0C9FC07F0BFFB0B494FF4FA729F
:1047000008630A49204605F0EBFB2046BDE8384027
:10471000074905F0E2BB000053706F727453746177
:10472000747573004750530028030020419500081A
:104730004597000870B5384C0646206801680A6C39
:104740001F2190474FF6FF71206801F055FE334955
:10475000206801F004FF0221206801F047FE206874
:10476000222201680B6D002198472DA1206805F0D9
:1047700083F90021206801F0F2FE0121206801F098
:1047800035FE2568284608F0AFFC00EBD0706FF0CE
:104790000C0101EB600002B228680021036D28467D
:1047A00098473146206805F0A7F91EA1206805F05A
:1047B00063F92568284608F097FC303802B228686B
:1047C0000021036D284698471CA1206805F094F944
:1047D0001D4802681DA1206805F07AF91A48001DDD
:1047E00002681FA1206805F073F917480C380268A9
:1047F00020A1206805F06CF913480838026822A14E
:10480000206805F065F91048001F02682068BDE8BF
:10481000704022A105F05CB978000020ACD30208FA
:104820003A2800005072657373204B455920746F0D
:10483000207265626F6F742E2E0000004572726FD9
:104840007220636F64653A0034ED00E04D4D4641DF
:1048500052203D203078253038580D0A00000000E5
:104860004246415220203D203078253038580D0AEC
:10487000000000004346535220203D203078253070
:1048800038580D0A000000004846535220203D20B1
:104890003078253038580D0A000000004446535245
:1048A00020203D203078253038580D0A00000000C7
:1048B00030B50446002002460CE000BFC2EBC20344
:1048C00054F8235004EB83039B8A2B44834200D982
:1048D0001846521C8A42F1D330BD000030B50D009D
:1048E0002DED028B83B002D023498D4206D903B04F
:1048F000BDEC028BBDE8304000F060B81F4C9FED6E
:10490000208A607001202070D4E9011088421ED0F6
:1049100000210091FF2201911A4B1146FFF7C0F8C8
:1049200000EE105AA068B8EE400AC8EE000ABCEECD
:10493000E00A10EE101AFFF775F90121A068FEF7E2
:1049400025FEA068606003B0BDEC028B30BD00EEB8
:10495000105AB8EE400AC8EE000ABCEEE00A10EEAB
:10496000101AFFF75FF9A06803B00121BDEC028BBC
:10497000BDE83040FEF70ABE20A10700D0010020AC
:104980000024F4484145000810B5144669B1094AAD
:1049900091420AD84CB1FFF7A1FF1EF09FFE01190A
:1049A0000548C1600021017010BDBDE8104000F055
:1049B00005B8000020A10700D001002070B5074C09
:1049C00005460021A068FEF7E1FD054800EB051053
:1049D0008189006841610020207070BDD0010020F5
:1049E000F84203081FB51C4604F0FCFF044949685F
:1049F00004B0204610BDAFF30080AFF30080F7E7AE
:104A00006002002013B50024012009F09DF804463F
:104A1000204609F091F84FF0FF301CBDAFF3008045
:104A2000AFF30080F4E7F0B500258BB00F46012A04
:104A300004D0022A05D0032A02D002E0012500E0BA
:104A400012252C2019F014FE040012D0684605F03F
:104A5000B9F804F108002422064602A9FCF78EFBEF
:104A6000019860602A463946304605F0D1FD18B1FC
:104A700006E000200BB0F0BD204619F083FE0024B4
:104A80002046F7E770B5154608461A46294608300D
:104A9000049C05F09BFF002801DA022070BD206015
:104AA000002070BD10B501F108002BB1012B05D01D
:104AB000022B06D00C2010BD114607E041691144BD
:104AC00004E00178C1F3C00111B1C16906F073FAC5
:104AD000002010BDC86910600020704738B515F07F
:104AE000F5FF16F031F8244A00211CF069FCBDF8EE
:104AF0000010002060F3020189B260F3C70189B29F
:104B000060F30C2189B260F34F31ADF8001088B228
:104B10000090BDF8004015F0D9FF214616F040F88E
:104B2000164801F035FFFFF701FB15F0CFFF16F037
:104B300003F808F07FFA12A215A1184801F005F851
:104B400017A21BA1154801F000F81BA21EA11348D3
:104B500000F0FBFF1F4B4FF4FA7203210F4800F0E7
:104B600052FF002214A10D4800F0BAFFBDE8384002
:104B7000002008F045BA0000FFFF0F00E803002006
:104B800050616765732F5F54656D706C617465006B
:104B900054656D706C61746500000000780200203F
:104BA00050616765732F4C6976654D617000000038
:104BB0004C6976654D61700050616765732F44697B
:104BC000616C706C617465004469616C706C6174D7
:104BD00065000000699D010870B50C4601F10800F0
:104BE00005F0D2FF08B1002500E00225204619F0AB
:104BF000C9FD284670BD04F021B910B5084611461C
:104C00001A460830029C06F06FF8002801DA0220EC
:104C100010BD2060002010BD10B51EF05FFD80B2F9
:104C200010BD000010B50C4616A12046FBF79AFBFC
:104C300058B117A12046FBF795FB78B116A1204685
:104C4000FBF790FBA0B1002010BD442008F07CFFD2
:104C50000028F9D0BDE8104007F05ABB4FF4AC7003
:104C600008F072FF0028EFD0BDE8104006F01EBE2D
:104C7000D82008F069FF0028E6D0BDE8104007F012
:104C800025BD000054656D706C6174650000000006
:104C90004C6976654D6170004469616C706C61743B
:104CA0006500000013B5044601980168204600F035
:104CB00019F808B100201CBD241D204601AAD0E926
:104CC0000113994206D0091D6160091F04D00198A3
:104CD000086001E020F040FB01201CBD0A46011DD8
:104CE00000F018B80A46011DAFF300802DE9F0412D
:104CF000D1E90046154606E0276828463968FBF7E3
:104D000031FB28B1241DB442F6D10020BDE8F0816A
:104D10003846FBE730B50C684B68204600E0001DC4
:104D2000984202D005689542F9D1834201D1002012
:104D300030BD9C420AD0021D934202D103E010CA4A
:104D400010C09A42FBD14868001F4860012030BD66
:104D5000002343608360C3600160704710B5041D89
:104D600040686268014600E0091D9142FCD1A168DB
:104D70000022091A891004F039FD201F10BD0021FE
:104D8000018041600172704700214180704770B519
:104D900002690D46044672B360882188884220D299
:104DA0006168A9421BD2E36800EB4000042101EBDB
:104DB0004001595A33F8100090476188E06801EBD0
:104DC0004102022303EB4202805A22895043C21758
:104DD00000EB126005EB2020491C6060618001201F
:104DE00070BD08D16068A84205D2002108469047EE
:104DF0006088401C6080002070BDC3688B4202D078
:104E0000C16002804280704700210161C1604FF49F
:104E1000807101817047C161704770B50446C069F7
:104E20000D46002868D0012675B1E07880B9E6709B
:104E300026701EF053FC2061E26901212046904754
:104E4000E269062120469047E078002854D0DDB181
:104E5000E2690221204690472046216900F04DF882
:104E6000A188884248D30220E070A07ED0B32046BB
:104E7000E16800F042F8E18888423DD31EF02EFC44
:104E8000E0600421E26929E00025E57020466169BF
:104E900000F033F82189884206D2208B401C208301
:104EA000E269092120469047A57666701EF016FC3F
:104EB00060612046216900F020F8A188884203D271
:104EC000E269082120469047E26907212046904781
:104ED000E269052120469047E26906212046BDE8A7
:104EE00070401047FFE7E2690321204690471EF01B
:104EF000F5FBE060A676A67070BD10B50C461EF0FE
:104F0000EDFB001B10BD8180C28003810021016187
:104F10004161C1608176C170C16170472DE9F04780
:104F2000054608461AF0E2F9814603F0A3F94FF46A
:104F300040710A4648461CF06FFC00231A460821BF
:104F4000484619F077FE002403274FF48078C5F80F
:104F50001490484617F016FE064694FBF7F0000240
:104F600002B294FBF7F007FB1040000201B230469A
:104F70001CF033FC4146424630461CF04DFC05EB2C
:104F80008400641C8661092CE3D3484617F0FAFDBF
:104F90000446054805A102F032FC0146204618F0FF
:104FA00005FCEC63BDE8F087F80300206770735FD1
:104FB0006172726F770000007CB5284E044630782D
:104FC000002849D1201D1DF0B1FB251D03F031F94A
:104FD0000090BDF80000ADF8040020212846019A99
:104FE0001DF094FC201D992221211DF08FFC201D15
:104FF000062201211DF08AFC201D0A224FF40461C3
:105000001DF084FC03F015F90090BDF80000ADF828
:10501000040044212846019A1DF078FC04F10C009C
:1050200004461DF083FB0EA1114801F0BBFC0246B3
:1050300041F2594120461DF069FC03F004F900904B
:10504000BDF80000ADF8040040F257412046019A37
:105050001DF05CFC012030707CBD00005000002081
:105060006261686E736368726966745F31370000ED
:10507000E80300202DE9F84305461F46904689467F
:105080000846089E17F07EFD0446414618F08EFB48
:10509000334600220121204619F0CCFD484618F085
:1050A00001FE064609A119F057FA002205F10C018C
:1050B000304619F069FD002000903B46132221463E
:1050C000304619F0C5FD3046BDE8F8832D2D0000AF
:1050D0002DE9FC4104460F4608461AF007F905463B
:1050E00003F0C8F80022211D284619F04DFD0022CA
:1050F000FF21284603F0B1F81E222D2128461CF07E
:105100008BFB0021384603F0AEF8283801B2282284
:1051100028461CF062FB002625640096C823264A18
:105120002649274801961DF05DFC0021384603F012
:105130009AF84FF4805702463B4641F21C0128463C
:105140001CF037FB3A460021284603F086F8394622
:10515000284619F012FD3A461949284603F0A3F8EB
:1051600000221749284603F09EF8284618F09AFDB9
:105170000746002204F10C0119F006FD00239A1ED7
:105180000821384619F056FD0EA1384619F0E4F909
:10519000284667641DF00CF8054603F06BF82846B6
:1051A00003210F2215F012F828460F21324615F080
:1051B00056F8A564BDE8FC81699D01081C570208EA
:1051C000D40300202D2D0000F8B5044608461AF03F
:1051D0008DF8054603F04EF80022211D284619F0EF
:1051E000D3FC42229F2128461CF016FB0A235E4274
:1051F00032460321284619F01DFD28460A220023C5
:1052000001211CF0D6FA2846256518F04BFD07460B
:105210002AA119F0A1F92AA12D4801F0C3FB0146EA
:105220000022384603F02CF803F00DF80146002266
:10523000384603F02BF8334614220621384619F07D
:10524000F9FC2846676518F02DFD064621A119F0E6
:1052500083F922A11E4801F0A5FB01460022304639
:1052600003F00EF802F0EFFF01460022304603F093
:105270000DF80320009000230D223046616D19F0D7
:10528000E7FC134819A11030064602F0B8FA0246AE
:105290000A200090052329462046FFF7EBFEA06573
:1052A00014A1304602F0ABFA02461E2000900523FE
:1052B00029462046FFF7DEFEE065F8BD30300000ED
:1052C0006261686E736368726966745F333200008E
:1052D000E80300206B6D2F68000000006261686EBB
:1052E000736368726966745F313300007472697049
:1052F00000000000616C61726D000000FEB50646A2
:105300000C46084602F0B6FF15F0E0FB15F032FC43
:10531000054615F0DBFB15F0F1FB01462A46204659
:105320001CF07AFA02F08FFF0190BDF80400ADF88E
:105330000000002320212046009A1CF03AFA204663
:10534000FF22002321211CF034FA204618F0AAFC89
:10535000002305461A46082119F06CFC0FA11348DA
:1053600001F020FB01460022284602F089FF10A12F
:10537000284619F0F1F830463560FFF71DFE21464A
:105380003046FFF7CBFD21463046FFF7A1FE03B0C4
:1053900021463046BDE8F040FFF716BF6261686EF7
:1053A000736368726966745F31370000E803002038
:1053B0004C4F4144494E472E2E2E000010B5103060
:1053C00004461FF055FB08B1002010BD20461FF019
:1053D0009AFE006810BD70B50C460546002C29D019
:1053E00094F82400082825D2DFE800F02404090EF0
:1053F00013171C252146284600F0F8F90AE021463B
:10540000284600F00FFB1AE02146284600F003FB77
:1054100015E0052084F82400E0E72146284600F046
:1054200026FB0CE02146284600F00DFB84F8240002
:105430000728D3D070BD2146284600F095FA84F89D
:10544000240070BD2DE9F041D0E901450E4606E08B
:1054500027683046F968FAF785FF28B1241DAC4269
:10546000F6D10020BDE8F0813846FBE710B50C46C8
:10547000002301220849204619F020FB00230222C4
:105480000549204619F01AFB20460023BDE81040CC
:105490000822014919F012BB5D56000810B5C26B15
:1054A000002122B192F829200AB1012300E0002353
:1054B000026C92F829401C4304D1002180F844106A
:1054C0000121C263084610BD70B504460D4608466A
:1054D00014F0E2FB94F848000A2805D0B4F84A001A
:1054E000A862E06CA86170BD0020F9E730B50D46F8
:1054F0008BB000F1100168461FF071FE0CE000BF98
:105500001FF001FE04682846E168FAF72BFF002827
:1055100068460CD01FF0ACFE68461FF0A9FA0028C0
:105520006846EDD01FF087FE00200BB030BD1FF0A5
:1055300082FE2046F9E700002DE9F04114460E46B0
:1055400015F0C4FA15F0DAFA054615F0BFFA15F0B1
:1055500011FB01460020022201230B2E67D2DFE857
:1055600006F066060D15171F2A35404B56002372AC
:105570006581A081E0812082608218E02372694207
:105580006181A081E081208260821BE0227201E0C3
:10559000227249426181A081E081208260821CE008
:1055A00023726581A081E081694221826182A082AB
:1055B000E08225833DE0237269426181A081E08120
:1055C00025826582A082E082218332E0227261819D
:1055D000A081E0814A4222826282A082E08221830D
:1055E0002BE022724A426281A081E08121826182A5
:1055F000A082E082228320E020726081FF21A181CD
:10560000E18121826182A182E182208308E01C2164
:105610002046FAF76BFE207A01280AD002280CD027
:1056200008482060084860600120BDE8F081002043
:10563000FBE7064820600648F5E706482060064874
:10564000F1E70000BF790008B1790008691A020883
:10565000C9060208A51A0208010702082DE9F0434D
:1056600006689FB0D6F810805FEA08013DD0D8F8F0
:105670000850047A284607AA95F84810FFF75CFFFF
:10568000002832D04FF00009012C20D0022C2FD05E
:10569000082C2AD195F84400002826D1BDF828000E
:1056A000BDF82610ADF81890401A07B2ADF80C906E
:1056B00003A906A800F02EF90899304688479DF8FE
:1056C00024100446012944D0022945D048E095F829
:1056D0004400002809D195F84500002805D030463F
:1056E000079914F099FA85F845901FB0BDE8F0834A
:1056F0000899304688470446BDF93200BDF9341098
:10570000884201DD054600E00D4601DA074600E06B
:105710000F4618F03FF902A918F082F99DF824000D
:10572000012802D0022803D006E0BDF8080001E0FD
:10573000BDF80A00204404B2BC4201DA394604E054
:10574000AC4201DD294600E02146079A30469047E9
:10575000CBE7BDF8181001E0BDF80C10601800B2DE
:10576000002F00DC7F42002801DD014600E04142BD
:1057700007EBD772B1EB620F04DD41460E4814F01F
:105780002BFCB2E7BDF928108142AED0012085F88C
:1057900045000EA92846FFF797FEBDF928000E9692
:1057A000CDE9164007980F90044811901395159471
:1057B0000EA814F013FB98E70B59000801590008D4
:1057C00038B50546FFF7FAFD009000280DD005F129
:1057D000100004461FF04CFD2846FFF7EFFD05467C
:1057E000204669461FF0E4FC284638BDF0B587B076
:1057F0000C46054615F06AF915F0A6F919F076FD84
:10580000064615F063F915F0B5F9074615F05EF98F
:1058100015F074F901463A4630461BF0FDFF1021A1
:10582000304619F0E6FC346166602068C1682046A5
:10583000884795F848000126401E032813D82846BB
:10584000FFF7BEFF78B1C07E68B128466A4695F87A
:105850004810FFF771FE30B19DF8080018B12846D6
:105860006168FFF703FE2068016920468847A07E33
:1058700010B1207EE07600E0E67607B00220F0BDB1
:1058800030B599B00C46054611AA90F84810FFF7BC
:1058900053FE00282FD069462846FFF715FE0594D1
:1058A00060680090154803901198019012990020AB
:1058B00009B16068884795F84610002994F82810C7
:1058C00008D021B1BDF94E00BDF950100AE0BDF974
:1058D000541007E021B1BDF95600BDF9581001E0A0
:1058E000BDF95C100790CDE90801684614F076FA1E
:1058F000012084F8290019B030BD00009959000832
:105900004069002180F8451070470022406810214E
:1059100016F012BC38B50C46054618F03BF869463F
:1059200018F07EF800231A46642108E0034400EBD7
:105930008000000190FBF1F01BB2ADF80200BDF950
:1059400002000028F2D108E0024400EB80000001D0
:1059500090FBF1F012B2ADF80000BDF90000002894
:10596000F2D12A80238038BD70B548680C4688B1D2
:10597000E069002528B1216A19B118F003FFE5613B
:105980002562606819F0BEFC6560E5762068416AB2
:1059900020468847002070BD70B545692946AC682F
:1059A0002046FFF718FD002085F829002046FFF764
:1059B00075FD94F84610002907D1002805D020462F
:1059C000216CBDE8704000F00BB870BD90F8441039
:1059D00011B990F8450008B10020704701207047C8
:1059E00091F82C2052B10A2A03D9D0E91423C1E935
:1059F0000B23D1E90B21C0E912217047D0E9141221
:105A0000C0E9121270470A2900D90A2100F8501F74
:105A100042804360704710B5084609688969884725
:105A2000042010BD70B5054608680C464169204643
:105A300088470121606819F0DCFB21462846FFF702
:105A40001FFF032070BD10B590F848000C460928D0
:105A500003D10121606819F06DF82068016A2046C1
:105A60008847E07E08B1022010BD072010BD70B548
:105A7000054608680C46C1692046884721462846E5
:105A8000FFF7FEFE062070BD70B50D460446FFF719
:105A90009DFF002823D02046FFF790FC00281ED051
:105AA000817E09B90021C176216A04F11000091F25
:105AB0002162216B491E2163226A02D041698A4218
:105AC00001D11FF02FFA2046FFF778FC060005D021
:105AD00001462B460022204600F079F8304670BD82
